:100000007590F07590007F287E64758902758C0666
:10001000758A0611740530E530B40A02800280F357
:100020007530000531E531B40602800280E5753196
:10003000000532E533B40209E532B4040411741149
:100040005DE532B40A02800280C97532000533E5ED
:1000500033B40A02800280BB75330080B67D00DDB8
:10006000FE115D22308DFDC28DDFF97F28DEF57E29
:1000700064C28C22853090D294C294853190D295FE
:10008000C295853290D296C296853390D297C29708
:01009000224D
:00000001FF
