:080A4A00020A0064020C0064C2
:03000300020A5A94
:050A5A00D28DD2B23282
:03001300020A5F7F
:050A5F00D28DD2B3327C
:03000B000209EFF8
:1009EF00C0E0C0F0C083C082C0D075D000C000C0CE
:1009FF0001C002C003C004C005C006C00712080032
:100A0F00D007D006D005D004D003D002D001D0003B
:0B0A1F00D0D0D082D083D0F0D0E032E5
:10080000E50964014508701BAE0CAF0DFC7D0212BA
:1008100009648F8AAE0AAF0B7C007D021209648FD7
:100820008C8006850D8A850B8CE50860030208C262
:10083000E50914602F14604C1460692403600302FE
:1008400008C2A2959200A2939201A2919202120A6A
:1008500053A2909200A2929201A2949202120A696B
:10086000B28C805EA2959200A2939201A291920214
:10087000120A64A2909200A2929201A29492021291
:100880000A6E803EA2959200A2939201A2919202DA
:10089000120A69A2909200A2929201A2949202126C
:1008A0000A53801EA2959200A2939201A2919202F5
:1008B000120A6EA2909200A2929201A29492021247
:1008C0000A64308C120509E50970020508640445C4
:0808D000087004F508F5092287
:100A2A00D2A8D288D2AAD28AD2A9D2AF758901C253
:100A3A008C850B8C850D8AE4F590D291D29080FE3C
:070A5300C200C201D2022221
:050A6400C202D20122D4
:050A6900C201D20022D1
:030A6E00D2012290
:030000000208D81B
:0C08D800787FE4F6D8FD75812002091F2E
:10096400C2D5EC30E709B2D5E4C39DFDE49CFCEEAE
:1009740030E715B2D5E4C39FFFE49EFE12099AC383
:10098400E49DFDE49CFC800312099A30D507C3E47E
:060994009FFFE49EFE221D
:1008E400020A2AE493A3F8E493A34003F68001F2F6
:1008F40008DFF48029E493A3F85407240CC8C33315
:10090400C4540F4420C8834004F456800146F6DFE3
:10091400E4800B0102040810204080900A4AE47E1F
:10092400019360BCA3FF543F30E509541FFEE493D8
:10093400A360010ECF54C025E060A840B8E493A39F
:10094400FAE493A3F8E493A3C8C582C8CAC583CACA
:10095400F0A3C8C582C8CAC583CADFE9DEE780BE82
:010A520000A3
:10099A00BC000BBE0029EF8DF084FFADF022E4CC41
:1009AA00F875F008EF2FFFEE33FEEC33FCEE9DEC0A
:1009BA00984005FCEE9DFE0FD5F0E9E4CEFD22ED50
:1009CA00F8F5F0EE8420D21CFEADF075F008EF2F9A
:1009DA00FFED33FD4007985006D5F0F222C398FD8B
:0509EA000FD5F0EA2228
:00000001FF
