:080A5C00020A00FA020C00FA84
:03000300020A6C82
:050A6C00D28DD2B23270
:03001300020A716D
:050A7100D28DD2B3326A
:03000B00020A01E5
:100A0100C0E0C0F0C083C082C0D075D000C000C0BB
:100A110001C002C003C004C005C006C0071208001F
:100A2100D007D006D005D004D003D002D001D00029
:0B0A3100D0D0D082D083D0F0D0E032D3
:10080000E50964014508702DC3950DFF7401950C31
:10081000FE7C007D02120976E50D2FF58AC3E49572
:100820000BFF7401950AFE7C007D02120976E50B30
:100830002FF58C8006850D8A850B8CE508600302F8
:1008400008D4E50914602F14604C14606924036017
:10085000030208D4A2959200A2939201A29192025F
:10086000120A65A2909200A2929201A294920212A0
:100870000A7BB28C805EA2959200A2939201A29113
:100880009202120A76A2909200A2929201A29492EF
:1008900002120A80803EA2959200A2939201A29138
:1008A0009202120A7BA2909200A2929201A29492CA
:1008B00002120A65801EA2959200A2939201A29153
:1008C0009202120A80A2909200A2929201A29492A5
:1008D00002120A76308C120509E5097002050864D7
:0A08E0000445087004F508F509222C
:100A3C00D2A8D288D2AAD28AD2A9D2AF758901C241
:100A4C008C850B8C850D8AE4F590D291D29080FE2A
:070A6500C200C201D202220F
:050A7600C202D20122C2
:050A7B00C201D20022BF
:030A8000D201227E
:030000000208EA09
:0C08EA00787FE4F6D8FD7581200209310A
:10097600C2D5EC30E709B2D5E4C39DFDE49CFCEE9C
:1009860030E715B2D5E4C39FFFE49EFE1209ACC35F
:10099600E49DFDE49CFC80031209AC30D507C3E45A
:0609A6009FFFE49EFE220B
:1008F600020A3CE493A3F8E493A34003F68001F2D2
:1009060008DFF48029E493A3F85407240CC8C33302
:10091600C4540F4420C8834004F456800146F6DFD1
:10092600E4800B0102040810204080900A5CE47EFB
:10093600019360BCA3FF543F30E509541FFEE493C6
:10094600A360010ECF54C025E060A840B8E493A38D
:10095600FAE493A3F8E493A3C8C582C8CAC583CAB8
:10096600F0A3C8C582C8CAC583CADFE9DEE780BE70
:010A64000091
:1009AC00BC000BBE0029EF8DF084FFADF022E4CC2F
:1009BC00F875F008EF2FFFEE33FEEC33FCEE9DECF8
:1009CC00984005FCEE9DFE0FD5F0E9E4CEFD22ED3E
:1009DC00F8F5F0EE8420D21CFEADF075F008EF2F88
:1009EC00FFED33FD4007985006D5F0F222C398FD79
:0509FC000FD5F0EA2216
:00000001FF
