:03000300020800F0
:10080000C0E0C0F0C083C082C0D075D000C000C0BE
:1008100001C002C003C004C005C006C0077F647EDB
:10082000001208DF1208B47F327E001208DF1208BF
:100830009CD2B2D007D006D005D004D003D002D0CD
:0E08400001D000D0D0D082D083D0F0D0E032F2
:0300130002084E92
:10084E00C0E0C0F0C083C082C0D075D000C000C070
:10085E0001C002C003C004C005C006C0077F647E8D
:10086E00001208DF1208B47F327E001208DF120871
:10087E009CD2B3D007D006D005D004D003D002D07E
:0E088E0001D000D0D0D082D083D0F0D0E032A4
:1008CC00D2A8D288D2AAD28AD2AFE4F590D291D251
:0308DC009080FE0B
:0F08DF0074FFFEFFD39400EE6480948050F222E9
:10089C00C294D292D2937F0A7E001208DFC292D207
:0808AC0090C295C293D2912283
:1008B400C291D293D2927F0A7E001208DFC293D2F1
:0808C40095C290C292D2942269
:030000000208EE05
:0C08EE00787FE4F6D8FD7581070208CC85
:00000001FF
