:080A0700020A00FA020C00FAD9
:03000300020A10DE
:080A1000208C02D28DD2B2321B
:03001300020A18C6
:080A1800208C02D28DD2B33212
:03000B000209AC3B
:1009AC00C0E0C0F0C083C082C0D075D000C000C011
:1009BC0001C002C003C004C005C006C00712080075
:1009CC00D007D006D005D004D003D002D001D0007F
:0B09DC00D0D0D082D083D0F0D0E03229
:10080000E509640145086008E50964034508702EA0
:10081000C3E4950DFF7401950CFE7C007D02120966
:1008200021E50D2FF58AC3E4950BFF7401950AFEAF
:100830007C007D02120921E50B2FF58C8006850DC9
:100840008A850B8CE5087037E50914601814601D63
:1008500014602624037028C295C293D291C292D20A
:1008600090B28C801AC291D293D2928012C293D24B
:1008700095C292C290D2948006D293C294D2923002
:100880008C120509E5097002050864044508700426
:05089000F508F5092246
:1009E700D2A8D288D2AAD28AD2A9D2AF758901C297
:1009F7008C850B8C850D8AE4F590D291D29080FE80
:030000000208955E
:0C089500787FE4F6D8FD75810D0208DCC8
:10092100C2D5EC30E709B2D5E4C39DFDE49CFCEEF1
:1009310030E715B2D5E4C39FFFE49EFE120957C309
:10094100E49DFDE49CFC800312095730D507C3E404
:060951009FFFE49EFE2260
:1008A1000209E7E493A3F8E493A34003F68001F27D
:1008B10008DFF48029E493A3F85407240CC8C33358
:1008C100C4540F4420C8834004F456800146F6DF27
:1008D100E4800B0102040810204080900A07E47EA6
:1008E100019360BCA3FF543F30E509541FFEE4931C
:1008F100A360010ECF54C025E060A840B8E493A3E3
:10090100FAE493A3F8E493A3C8C582C8CAC583CA0D
:10091100F0A3C8C582C8CAC583CADFE9DEE780BEC5
:010A0F0000E6
:10095700BC000BBE0029EF8DF084FFADF022E4CC84
:10096700F875F008EF2FFFEE33FEEC33FCEE9DEC4D
:10097700984005FCEE9DFE0FD5F0E9E4CEFD22ED93
:10098700F8F5F0EE8420D21CFEADF075F008EF2FDD
:10099700FFED33FD4007985006D5F0F222C398FDCE
:0509A7000FD5F0EA226B
:00000001FF
