:100000007590F07590007F287E64758902758C0666
:10001000758A0605301163E530B409F775300005BF
:10002000311163116DE531B406E975310005321106
:100030006D1177E532B409DB7532000533117711A4
:1000400081E533B406CD753300118180C6227D056C
:10005000DDFE22308DFDC28DDFF97F28DEF57E6466
:10006000C28C22114D853090D294C29422114D85BC
:100070003190D295C29522114D853290D296C2967A
:0B00800022114D853390D297C29722C9
:00000001FF
